{
  "contractName": "ExerciceSolution",
  "abi": [
    {
      "inputs": [],
      "name": "depositSomeTokens",
      "outputs": [],
      "stateMutability": "nonpayable",
      "type": "function"
    },
    {
      "inputs": [],
      "name": "withdrawSomeTokens",
      "outputs": [],
      "stateMutability": "nonpayable",
      "type": "function"
    },
    {
      "inputs": [],
      "name": "borrowSomeTokens",
      "outputs": [],
      "stateMutability": "nonpayable",
      "type": "function"
    },
    {
      "inputs": [],
      "name": "repaySomeTokens",
      "outputs": [],
      "stateMutability": "nonpayable",
      "type": "function"
    },
    {
      "inputs": [],
      "name": "doAFlashLoan",
      "outputs": [],
      "stateMutability": "nonpayable",
      "type": "function"
    },
    {
      "inputs": [],
      "name": "repayFlashLoan",
      "outputs": [],
      "stateMutability": "nonpayable",
      "type": "function"
    },
    {
      "inputs": [
        {
          "internalType": "uint256",
          "name": "amount",
          "type": "uint256"
        }
      ],
      "name": "moneyyyyyyyyyyyyy",
      "outputs": [],
      "stateMutability": "nonpayable",
      "type": "function"
    }
  ],
  "bytecode": "0x608060405234801561001057600080fd5b50610841806100206000396000f3fe608060405234801561001057600080fd5b506004361061007d5760003560e01c8063d871f5941161005b578063d871f594146100c4578063db50609f146100ce578063f6b96bae146100d8578063fc6669b6146100e25761007d565b80631a231a711461008257806341301b381461008c5780634b5bd34f146100ba575b600080fd5b61008a6100ec565b005b6100b8600480360360208110156100a257600080fd5b810190808035906020019092919050505061020e565b005b6100c26102e8565b005b6100cc6104e8565b005b6100d66104ea565b005b6100e061061f565b005b6100ea610809565b005b6000737b5c526b7f8dfdff278b4a3e045083fba4028790905060007365afadd39029741b3b8f0756952c74678c9cec9390508173ffffffffffffffffffffffffffffffffffffffff1663a415bcad82620f424060026000306040518663ffffffff1660e01b8152600401808673ffffffffffffffffffffffffffffffffffffffff1673ffffffffffffffffffffffffffffffffffffffff1681526020018581526020018481526020018361ffff1681526020018273ffffffffffffffffffffffffffffffffffffffff1673ffffffffffffffffffffffffffffffffffffffff16815260200195505050505050600060405180830381600087803b1580156101f257600080fd5b505af1158015610206573d6000803e3d6000fd5b505050505050565b7365afadd39029741b3b8f0756952c74678c9cec9373ffffffffffffffffffffffffffffffffffffffff1663a9059cbb33836040518363ffffffff1660e01b8152600401808373ffffffffffffffffffffffffffffffffffffffff1673ffffffffffffffffffffffffffffffffffffffff16815260200182815260200192505050602060405180830381600087803b1580156102a957600080fd5b505af11580156102bd573d6000803e3d6000fd5b505050506040513d60208110156102d357600080fd5b81019080805190602001909291905050505050565b6000737b5c526b7f8dfdff278b4a3e045083fba4028790905060007365afadd39029741b3b8f0756952c74678c9cec9390508073ffffffffffffffffffffffffffffffffffffffff1663095ea7b383633b9aca006040518363ffffffff1660e01b8152600401808373ffffffffffffffffffffffffffffffffffffffff1673ffffffffffffffffffffffffffffffffffffffff16815260200182815260200192505050602060405180830381600087803b1580156103a557600080fd5b505af11580156103b9573d6000803e3d6000fd5b505050506040513d60208110156103cf57600080fd5b8101908080519060200190929190505050508173ffffffffffffffffffffffffffffffffffffffff1663573ade81826207a1206002306040518563ffffffff1660e01b8152600401808573ffffffffffffffffffffffffffffffffffffffff1673ffffffffffffffffffffffffffffffffffffffff1681526020018481526020018381526020018273ffffffffffffffffffffffffffffffffffffffff1673ffffffffffffffffffffffffffffffffffffffff168152602001945050505050602060405180830381600087803b1580156104a857600080fd5b505af11580156104bc573d6000803e3d6000fd5b505050506040513d60208110156104d257600080fd5b8101908080519060200190929190505050505050565b565b6000737b5c526b7f8dfdff278b4a3e045083fba40287909050600073ba8dced3512925e52fe67b1b5329187589072a5590508173ffffffffffffffffffffffffffffffffffffffff166369328dec82670de0b6b3a7640000336040518463ffffffff1660e01b8152600401808473ffffffffffffffffffffffffffffffffffffffff1673ffffffffffffffffffffffffffffffffffffffff1681526020018381526020018273ffffffffffffffffffffffffffffffffffffffff1673ffffffffffffffffffffffffffffffffffffffff1681526020019350505050602060405180830381600087803b1580156105df57600080fd5b505af11580156105f3573d6000803e3d6000fd5b505050506040513d602081101561060957600080fd5b8101908080519060200190929190505050505050565b6000737b5c526b7f8dfdff278b4a3e045083fba40287909050600073ba8dced3512925e52fe67b1b5329187589072a5590508073ffffffffffffffffffffffffffffffffffffffff1663095ea7b383683635c9adc5dea000006040518363ffffffff1660e01b8152600401808373ffffffffffffffffffffffffffffffffffffffff1673ffffffffffffffffffffffffffffffffffffffff16815260200182815260200192505050602060405180830381600087803b1580156106e157600080fd5b505af11580156106f5573d6000803e3d6000fd5b505050506040513d602081101561070b57600080fd5b8101908080519060200190929190505050508173ffffffffffffffffffffffffffffffffffffffff1663617ba03782678ac7230489e800003060006040518563ffffffff1660e01b8152600401808573ffffffffffffffffffffffffffffffffffffffff1673ffffffffffffffffffffffffffffffffffffffff1681526020018481526020018373ffffffffffffffffffffffffffffffffffffffff1673ffffffffffffffffffffffffffffffffffffffff1681526020018261ffff168152602001945050505050600060405180830381600087803b1580156107ed57600080fd5b505af1158015610801573d6000803e3d6000fd5b505050505050565b56fea26469706673582212205107cb3db9f7e08c9410cf5249b4cb2d52def4f27d5c6e3c29ebd397fb7a7e2d64736f6c63430006020033",
  "source": "pragma solidity ^0.6.0;\r\n\r\nimport \"@openzeppelin/contracts/token/ERC20/IERC20.sol\";\r\nimport \"./IExerciceSolution.sol\";\r\nimport \"./IPool.sol\";\r\nimport \"./ERC20TD.sol\";\r\nimport \"@openzeppelin/contracts/token/ERC20/ERC20.sol\";\r\n\r\ncontract ExerciceSolution is IExerciceSolution\r\n{\r\n    function depositSomeTokens() external override\r\n    {\r\n        address poolAddress = 0x7b5C526B7F8dfdff278b4a3e045083FBA4028790;\r\n        address daiAddress = 0xBa8DCeD3512925e52FE67b1b5329187589072A55;\r\n        ERC20TD(daiAddress).approve(poolAddress, 1000*10**18);\r\n        IPool(poolAddress).supply(daiAddress, 10*10**18, address(this), 0);\r\n    \r\n    }\r\n\r\n    function withdrawSomeTokens() external override\r\n    {\r\n        address poolAddress = 0x7b5C526B7F8dfdff278b4a3e045083FBA4028790;\r\n        address daiAddress = 0xBa8DCeD3512925e52FE67b1b5329187589072A55;\r\n\r\n        IPool(poolAddress).withdraw(daiAddress, 1*10**18, msg.sender);\r\n    }\r\n\r\n    function borrowSomeTokens() external override\r\n    {\r\n        address poolAddress = 0x7b5C526B7F8dfdff278b4a3e045083FBA4028790;\r\n        address USDCAddress = 0x65aFADD39029741B3b8f0756952C74678c9cEC93;\r\n\r\n        IPool(poolAddress).borrow(USDCAddress, 1*10**6, 2, 0, address(this));\r\n    }\r\n\r\n    function repaySomeTokens() external override\r\n    {\r\n        address poolAddress = 0x7b5C526B7F8dfdff278b4a3e045083FBA4028790;\r\n        address USDCAddress = 0x65aFADD39029741B3b8f0756952C74678c9cEC93;\r\n        ERC20TD(USDCAddress).approve(poolAddress, 1000*10**6);\r\n        IPool(poolAddress).repay(USDCAddress, 0.5*10**6, 2, address(this));\r\n    }\r\n\r\n    function doAFlashLoan() external override\r\n    {\r\n\r\n    }\r\n\r\n    function repayFlashLoan() external override\r\n    {\r\n        \r\n    }\r\n  \r\n\r\n    function moneyyyyyyyyyyyyy(uint amount) external\r\n    {\r\n       ERC20(0x65aFADD39029741B3b8f0756952C74678c9cEC93).transfer(msg.sender, amount);\r\n    }\r\n\r\n}",
  "sourcePath": "C:\\Users\\hugos\\OneDrive\\Bureau\\Esilv S8\\lending-101\\contracts\\ExerciceSolution.sol",
  "compiler": {
    "name": "solc",
    "version": "0.6.2+commit.bacdbe57.Emscripten.clang"
  },
  "schemaVersion": "3.4.12",
  "updatedAt": "2023-02-21T08:57:02.465Z",
  "networkType": "ethereum",
  "devdoc": {
    "methods": {}
  },
  "userdoc": {
    "methods": {}
  }
}